:02000000FC29D9
:10000800FF00030E8301C2000A08C0008A017B08B2
:10001800A2007C08A1007D08A0008B1C2528A30A4B
:100028000319A40A0830FB009D30FC000530FD00D0
:10003800FD0B1C28FC0B1C28FB0B1C2800000000D7
:100048008B102208FB002108FC002008FD00400856
:0C0058008A00420E8300FF0E7F0E09009C
:0C00640000000000000000000000080088
:0E007000533083120313FD00FD0B3C280800E3
:10007E00243083120313FC00B530FD00FD0B452820
:0A008E00FC0B4528000000000800EC
:1000980083120313F801F9011030FC00710DF80DFB
:1000A800F90D7408F8027508031C750FF902031896
:1000B80064287408F80775080318750FF907031002
:0A00C800F00DF10DFC0B52280800AA
:1000D20083120313D11B6F28861170288615511BBA
:1000E2007428061175280615D11A792886107A28DF
:1000F2008614511A7E2806137F2806174118832872
:10010200061684280612861632208612D1198B28EA
:1001120086118C28861551199028061191280615EA
:10012200D118952886109628861451189A280613F5
:100132009B28061741189F280616A0280612861625
:1001420032208612411CA7283F20A8283820080008
:100152008312031341104C08D10069204114080096
:0E016200831203133F088A003E088200080043
:1001700083120313CF0105304F020318C6284F081E
:100180004E07840020308000CF0ABB284F084E075E
:1001900084008001CF034F084E07D0000A30F400DE
:1001A000F5014C08F0004D08F1004C207808F000F3
:1001B0007908F1003030F0075008840070088000A2
:1001C0000A30F400F5014C08F0004D08F1004C2015
:1001D0007008CC007108CD0000307106031DF228B4
:1001E00000307006031DF528F728CF03CB28080040
:1001F00083120313C801C9014308CA004408CB0095
:1002000080304406F00080307002031D0929003060
:100210004302031817290130C8000030C900430801
:10022000003CCA004408031C013ECB01CB024A0833
:10023000CC004B08CD004508CE00B8200630C600E3
:100240000030C7004708003C031D28294608003C31
:100250000318432946084507F20001304602F00022
:100260000030031C013E4702F1007008450784007E
:100270000008F00072088400700880000130C60297
:10028000031CC70322294508840020308000480849
:10029000490403196129C601C701460845078400BE
:1002A0000008203A031D5829C60A0319C70A4D2918
:1002B0000130C602031CC7034608450784002D30E1
:0402C00080000800B2
:1002C4007429803083120313C3008729C030C3000C
:1002D40087299430C3008729D430C300872980300C
:1002E400C3008729831203134308013A03196329BE
:1002F4004308023A031968294308033A03196B298E
:100304004308043A03196E2971294403F000430891
:10031400F0077008C3007008D10069204110C601BD
:1003240046084507840000080319A0294608450724
:1003340084000008CC00A920C60A922941140800B0
:10034400B1208A110A128000840ABE0A0319BF0A66
:08035400F003031DA2290800BB
:10035C0083160313861206120613861006118611D5
:10036C0083128612061286110611861006133F2080
:10037C003F203F20861406178616322086123F2017
:10038C008616322086123F208616322086123F2097
:10039C0006138616322086123F20861632208612CD
:1003AC00861086158616322086123F208611061777
:1003BC0086163220861206138616322086123F20AD
:1003CC0086163220861206178616322086123F2099
:1003DC000613861632208612861506158614061705
:0C03EC008616322086123F2041140800C3
:1003F80083120313A301A4014830A5002E30A600E0
:100408004230A7002030A8003A30A900AA01543091
:10041800AB004930AC004D30AD004530AE00523035
:10042800AF003A30B000B101B201B30183168801C0
:100438000614D0308B0001130113AE210130D10016
:1004480069200C30D10069200130D1006920B20A3E
:100458000319B30A0130D10069200C30D10069209A
:100468000130C3000130C4002530C50062212308D3
:10047800C3002408C4003430C500F8200130C3008C
:100488000730C4003430C50062213208C300330885
:10049800C4003930C500F8200230C3000130C40060
:1004A8002B30C50062210230C3000730C400393048
:1004B800C50062211A30FB005E30FC006E30FD0082
:1004C800FD0B642AFC0B642AFB0B642A00008030B5
:1004D8003306F00080307002031D742A3C3032026B
:1004E800031C882A7F30FB00D430FC003130FD002B
:1004F800FD0B7C2AFC0B7C2AFB0B7C2A00000000ED
:10050800B201B301A301A4018030F00080302406B9
:100518007002031D912A2308643C031C0A2B8030B7
:100528002406F00080307002031D9C2A3E3023020E
:10053800031C0A2BFF3088000D30FB00AF30FC0095
:10054800B630FD00FD0BA62AFC0BA62AFB0BA62A3B
:10055800000088010D30FB00AF30FC00B630FD0014
:10056800FD0BB42AFC0BB42AFB0BB42A0000FF30A5
:1005780088000D30FB00AF30FC00B630FD00FD0BED
:10058800C32AFC0BC32AFB0BC32A000088010D30C9
:10059800FB00AF30FC00B630FD00FD0BD12AFC0B90
:1005A800D12AFB0BD12A0000FF3088000D30FB0058
:1005B800AF30FC00B630FD00FD0BE02AFC0BE02A52
:1005C800FB0BE02A000088010D30FB00AF30FC0077
:1005D800B630FD00FD0BEE2AFC0BEE2AFB0BEE2AD3
:1005E8000000FF3088000D30FB00AF30FC00B63053
:1005F800FD00FD0BFD2AFC0BFD2AFB0BFD2A00006C
:100608008801A301A401B201B30188012B2A0B2B95
:02400E004A2F37
:00000001FF
